:1000000012C02CC02BC02AC029C028C027C026C0BF
:1000100025C024C023C022C021C020C01FC01EC0D4
:100020001DC01CC01BC011241FBECFE5D4E0DEBF25
:10003000CDBF10E0A0E6B0E0E8ECF8E002C005902B
:100040000D92A03BB107D9F720E0A0EBB0E001C0D2
:100050001D92A43BB207E1F7E9D134C4D1CF805C53
:1000600087B987ED86B9349BFECF24B135B1822F95
:10007000932F0895999918C081E090E0A0E0B0E036
:1000800099990DC00196A11DB11D803C27E29207F0
:1000900029E0A207B105A1F72FEF3FEF3BC0803C5D
:1000A0009742A940B10589F11FBC82E08EBD1DBCFD
:1000B0001CBC999B20C08CB59DB581369A4ED8F456
:1000C00081E090E0A0E0B0E0999B10C02CB53DB578
:1000D00021363A4E58F40196A11DB11D813C27E20C
:1000E000920729E0A207B10579F705C0803C974245
:1000F000A940B10569F02CB53DB51EBC21368AEE8C
:10010000380740F02EEF3FEF05C02FEF3FEF02C062
:100110002FEF3FEF822F932F08959B9918C081E016
:1001200090E0A0E0B0E09B990DC00196A11DB11D2B
:10013000803C27E2920729E0A207B105A1F72FEF43
:100140003FEF3BC0803C9742A940B10589F11FBCFD
:1001500082E08EBD1DBC1CBC9B9B20C08CB59DB598
:1001600081369A4ED8F481E090E0A0E0B0E09B9B0D
:1001700010C02CB53DB521363A4E58F40196A11D5C
:10018000B11D813C27E2920729E0A207B10579F76A
:1001900005C0803C9742A940B10569F02CB53DB53A
:1001A0001EBC21368AEE380740F02EEF3FEF05C027
:1001B0002FEF3FEF02C02FEF3FEF822F932F0895D5
:1001C0005D9BFECF8CB908955F9BFECF8CB190E014
:1001D0000895CF93DF93EC018881882371F02196F5
:1001E000EFDF2FEF80E792E0215080409040E1F771
:1001F00000C0000089918111F3CFDF91CF91089564
:1002000015BA8AE18A95F1F700C081E085BB88E2E2
:100210008A95F1F715BA85E38A95F1F700000895FC
:1002200015BA8AE18A95F1F700C084E085BB88E2BF
:100230008A95F1F715BA85E38A95F1F700000895DC
:100240008F929F92AF92BF92CF92DF92EF92FF92E6
:100250006A017B011FBC2FE13EE437BD26BD22E0D1
:100260002FBD2AE12EBD2FEF27BB2FB520682FBD54
:100270002FB520622FBD8F30910539F18431910562
:1002800009F443C00A9709F05FC066B577B580E00E
:1002900090E003D24B015C0120E030E040EA51E401
:1002A000C701B60161D19B01AC01C501B401A7D260
:1002B000C8D17BBD6ABD2FEF80E792E0215080401E
:1002C0009040E1F700C000003FC066B577B580E020
:1002D00090E0E3D14B015C0120E030E040EA51E4E2
:1002E000C701B60141D19B01AC01C501B40187D260
:1002F000A8D17BBD6ABD2FEF80E792E021508040FE
:100300009040E1F700C000001FC066B577B580E0FF
:1003100090E0C3D14B015C0120E030E040EA51E4C1
:10032000C701B60121D19B01AC01C501B40167D25F
:1003300088D17BBD6ABD2FEF80E792E021508040DD
:100340009040E1F700C00000FF90EF90DF90CF9069
:10035000BF90AF909F908F900895CF93DF9350DF21
:1003600089DEEC019093B1008093B000CF3F8FEF16
:10037000D80731F480E690E02CDF8DE021DF1BC050
:10038000CE3F8FEFD80731F48EE690E022DF8DE08C
:1003900017DF11C08FE790E01CDFBE0180E090E026
:1003A0007CD120E030E048E652E4DED045D1862F13
:1003B00007DF8DE005DFDF91CF910895CF93DF93C5
:1003C0002FDFABDEEC019093B1008093B000CF3F04
:1003D0008FEFD80731F480E690E0FBDE8DE0F0DEB1
:1003E0001BC0CE3F8FEFD80731F48EE690E0F1DEF0
:1003F0008DE0E6DE11C08FE790E0EBDEBE0180E02D
:1004000090E04BD120E030E048E652E4ADD014D18A
:10041000862FD6DE8DE0D4DEDF91CF91089585E082
:1004200090E01DDECDDE8DE0CBDE089585ED84BB52
:100430008FEF81BB8EE187BB0F2EC12CD12CF0E852
:10044000EF2EFFE3FF2EF02D6894882481F8992485
:1004500093940F2EF4E1AF2EF02D0F2EFAE0BF2E65
:10046000F02DC1E0D0E0B0DE863471F4B8BA8EE889
:1004700090E0AFDE2FEF80E792E021508040904087
:10048000E1F700C000003FC0823471F4A8BA86E9E9
:1004900090E09FDE2FEF80E792E021508040904077
:1004A000E1F700C000002FC0823571F498BA8FE9DF
:1004B00090E08FDE2FEF80E792E021508040904067
:1004C000E1F700C000001FC08C3471F488BA85EADF
:1004D00090E07FDE2FEF80E792E021508040904057
:1004E000E1F700C000000FC0833569F418BA8AEA4A
:1004F00090E06FDE2FEF80E792E021508040904047
:10050000E1F700C0000029DF59DF20E030E040E2E1
:1005100051E4C701B60173D18FD08B0120E030E0E8
:1005200040EC5FE3C701B6011BD0811111C080917F
:10053000B2009091B300009729F4D093B300C09318
:10054000B20006C0019721F41092B3001092B200DD
:10055000B701A601C80174DE6B017C0160DF83CFA7
:10056000D9D008F481E008950CD00FC107D140F034
:10057000FED030F021F45F3F19F0F0C0511139C1C5
:10058000F3C014D198F39923C9F35523B1F3951B04
:10059000550BBB27AA2762177307840738F09F5FA4
:1005A0005F4F220F331F441FAA1FA9F333D00E2E13
:1005B0003AF0E0E830D091505040E695001CCAF780
:1005C00029D0FE2F27D0660F771F881FBB1F261745
:1005D00037074807AB07B0E809F0BB0B802DBF0118
:1005E000FF2793585F4F2AF09E3F510568F0B6C031
:1005F00000C15F3FECF3983EDCF3869577956795F5
:10060000B795F7959F5FC9F7880F911D96958795C8
:1006100097F90895E1E0660F771F881FBB1F6217E7
:1006200073078407BA0720F0621B730B840BBA0BA5
:10063000EE1F88F7E095089504D06894B111D9C0F1
:100640000895BCD088F09F5790F0B92F9927B751E3
:10065000A0F0D1F0660F771F881F991F1AF0BA9586
:10066000C9F712C0B13081F0C3D0B1E00895C0C065
:10067000672F782F8827B85F39F0B93FCCF386957C
:1006800077956795B395D9F73EF4909580957095D9
:1006900061957F4F8F4F9F4F0895E89409C097FB56
:1006A0003EF490958095709561957F4F8F4F9F4F49
:1006B0009923A9F0F92F96E9BB279395F69587958D
:1006C00077956795B795F111F8CFFAF4BB0F11F450
:1006D00060FF1BC06F5F7F4F8F4F9F4F16C08823F7
:1006E00011F096E911C0772321F09EE8872F762F2D
:1006F00005C0662371F096E8862F70E060E02AF06E
:100700009A95660F771F881FDAF7880F9695879559
:1007100097F90895990F0008550FAA0BE0E8FEEF2E
:1007200016161706E807F907C0F012161306E407B5
:10073000F50798F0621B730B840B950B39F40A26AE
:1007400061F0232B242B252B21F408950A2609F48C
:10075000A140A6958FEF811D811D089597F99F6790
:1007600080E870E060E008959FEF80EC0895002439
:100770000A941616170618060906089500240A9406
:1007800012161306140605060895092E0394000C8C
:1007900011F4882352F0BB0F40F4BF2B11F460FF1B
:1007A00004C06F5F7F4F8F4F9F4F089557FD905844
:1007B000440F551F59F05F3F71F04795880F97FB25
:1007C000991F61F09F3F79F08795089512161306DF
:1007D0001406551FF2CF4695F1DF08C0161617060E
:1007E0001806991FF1CF8695710561050894089543
:1007F000E894BB2766277727CB0197F908950BD09C
:10080000C4CFB5DF28F0BADF18F0952309F0A6CFE2
:10081000ABCF1124EECFCADFA0F3959FD1F3950F94
:1008200050E0551F629FF001729FBB27F00DB11D74
:10083000639FAA27F00DB11DAA1F649F6627B00D04
:10084000A11D661F829F2227B00DA11D621F739FED
:10085000B00DA11D621F839FA00D611D221F749FFB
:100860003327A00D611D231F849F600D211D822F42
:10087000762F6A2F11249F5750408AF0E1F0882389
:100880004AF0EE0FFF1FBB1F661F771F881F915096
:100890005040A9F79E3F510570F060CFAACF5F3F4F
:1008A000ECF3983EDCF3869577956795B795F795C9
:1008B000E7959F5FC1F7FE2B880F911D9695879551
:0808C00097F90895F894FFCFA9
:1008C8004572726F72202020202020202000546959
:1008D8006D65206F757420202020202020200020A6
:1008E800202020202020202020636D202000666FFB
:1008F8007277617264006261636B7761726400721F
:1009080069676874006C6566740073746F700000C2
:00000001FF
