:1000000012C02CC02BC02AC029C028C027C026C0BF
:1000100025C024C023C022C021C020C01FC01EC0D4
:100020001DC01CC01BC011241FBECFE5D4E0DEBF25
:10003000CDBF10E0A0E6B0E0ECEEF2E002C005902B
:100040000D92A837B107D9F720E0A8E7B0E001C0CA
:100050001D92AA37B207E1F7BFD046C1D1CF805C6D
:1000600087B987ED86B9349BFECF24B135B1822F95
:10007000932F08959C01207F332722BB92B39E5F6C
:1000800092BBE3EFF1E03197F1F700C0000092B3CB
:10009000925092BB8295807F82BB82B38E5F82BB7F
:1000A00083EF91E00197F1F700C0000082B3825026
:1000B00082BB08959C01207F332722BB22B32D5F92
:1000C00022BBE3EFF1E03197F1F700C0000022B36B
:1000D000235022BB82959295907F9827807F982706
:1000E00082BB82B38D5F82BB83EF91E00197F1F712
:1000F00000C0000082B3835082BB0895CF93DF938A
:10010000EC018881882331F0219690E0D3DF89913A
:100110008111FBCFDF91CF9108950F931F93CF9360
:10012000DF93EC01009759F580E390E0C3DF84E0B2
:1001300090E0A0DF20C09E01ADECBCECC9D08C01EA
:100140001695079516950795169507959801220F10
:10015000331FC801880F991F880F991F880F991F97
:10016000820F931F9E01281B390BC901C096A2DF85
:10017000E801209701F786E090E07CDF04C084E08E
:1001800090E078DFD8CFDF91CF911F910F91089544
:1001900082E090E06FDF88E290E06CDF8CE090E03E
:1001A00069DF86E090E066DF089515BA000081E01F
:1001B00085BB8FEF88BB81E090E0909379008093BE
:1001C000780083E08A95F1F7000015BA18BA10920A
:1001D0007900109278000895CF93DF938FEF81BB61
:1001E00081E084BB82E085BBD3DF80E890E042DF22
:1001F00080E690E083DF2FE38DE093E021508040A4
:100200009040E1F700C0000081E090E033DF83EF31
:1002100091E00197F1F700C0000080E890E02ADF4C
:1002200088E690E06BDFC1DF83B3811143C004C077
:1002300083B3811132C002C0C0E0D0E08FE088BB40
:1002400081E090E017DF83EF91E00197F1F700C0C4
:10025000000085E890E00EDFCE015FDF81E090E0F6
:10026000FEDEEC0183EF91E00197F1F700C00000A2
:1002700085EC90E0FFDE84E6282F2C9FC0012D9FA7
:10028000900D11244ADF8FE39DE023E081509040E0
:100290002040E1F700C0000016C089EF90E0019710
:1002A000F1F700C000002196C1329EE4D90709F0A1
:1002B000BFCF09C089EF90E00197F1F700C00000BF
:1002C000C1E0D0E0B5CF80E090E0DF91CF9108951C
:1002D000A29FB001B39FC001A39F01D0B29F700D38
:0C02E000811D1124911D0895F894FFCF9A
:1002EC0057454C434F4D4500456E746572207468FC
:0802FC00652076616C75650058
:00000001FF
